:020000040800F2
:1000000008B5064B1A783AB9054A1AB10548AFF354
:100010000080024B01221A7008BD00BF08000020BA
:10002000000000001801000808B5034B1BB103498C
:100030000348AFF3008008BD000000000C00002062
:1000400018010008002301461A46184600F018B8A7
:1000500038B5074D074C2C1BA41005D0013C55F8B2
:10006000043D9847002CF9D1BDE8384000F05AB85B
:100070003C01000838010008704700BF704700BF0E
:10008000F0B51D4C83B005462068019116461F4609
:10009000FFF7F2FF194A0199136823B35A682068E1
:1000A0001F2A23DC4DB9541C02325C6043F8221035
:1000B000FFF7E4FF002003B0F0BD03EB820E012444
:1000C000CEF88860D3F888C194404CEA040C022D25
:1000D000C3F888C1CEF80871E5D1D3F88C51254317
:1000E000C3F88C51DFE7064B1360D7E7FFF7C6FF75
:1000F0004FF0FF30DFE700BF00000020B801002014
:1001000028000020024B13B10248FFF79BBF704745
:100110000000000051000008F8B500BFF8BC08BCA2
:100120009E467047F8B500BFF8BC08BC9E467047B5
:08013000050100082900000888
:080138000100000800000000B6
:08014000240000200000000073
:0400000508000000EF
:00000001FF
